:1000000041C1000070C100006EC100006CC1000061
:100010006AC1000068C1000066C1000064C1000040
:1000200062C1000060C100005EC100005CC1000050
:100030005AC10000F6C7000056C1000054C10000BC
:1000400052C1000050C100004EC100004CC1000070
:100050004AC1000048C1000046C100000C94A2182B
:1000600042C100000C94EE1B0C94241C3CC1000007
:100070003AC1000038C1000036C1000034C10000A0
:1000800032C1000030C100002EC100002CC10000B0
:100090002AC1000028C1000026C1000024C10000C0
:1000A00022C1000020C100001EC100001CC10000D0
:1000B0001AC1000018C1000016C1000014C10000E0
:1000C00012C1000010C100000EC100000CC10000F0
:1000D0000AC1000008C1000006C1000004C1000000
:1000E00002C1000008020B020E02110214021702E4
:1000F0001A021D02200223022602290274026E0245
:10010000CE02E502A002B702A9032A0341036F034E
:10011000860358036E026E02FC021303D0035304DD
:100120006D048704A104BB04D404EC04990599056B
:1001300003051D053705510566058005AE19B11982
:10014000A019A419AA19E819B519B919BF19C31921
:10015000C719CD19D119D519E819DB19DF19E31918
:1001600000000A0B02090C0D0E0807030401000031
:10017000000000000000000000000000000000007F
:10018000000000000000000000000000121110003C
:10019000000000000000000000000000000000005F
:1001A000000000000000010210202008081020407C
:1001B000102040800201020108040201010204082B
:1001C00010204080804020100804020180040201B9
:1001D0008040201008040201080402010102040802
:1001E000102040800102040810204080050505050C
:1001F000070508080808020202020A0A080804049F
:1002000004040101010101010101030303030303CC
:100210000303040707070C0C0C0C0C0C0C0C02025B
:10022000020206060606060606060B0B0B0B0B0B58
:100230000B0B000020002300260029002C002F00BB
:100240003200000100000301060109010000220044
:10025000250028002B002E00310034000201000090
:10026000050108010B0100002100240027002A00DD
:100270002D003000330001010000040107010A01D4
:100280003C07561C11241FBECFEFD1E2DEBFCDBF0D
:1002900000E00CBF13E0A0E0B2E0EEE1F1E400E02A
:1002A0000BBF02C007900D92A432B107D9F725E029
:1002B000A4E2B3E001C01D92AA31B207E1F712E057
:1002C000C4E8D2E000E006C022970109FE010BBF9E
:1002D0000E944320C038D10780E00807A9F70E9498
:1002E000C21D0C948D208CCE80EA93E05DD726E071
:1002F00040E855E260E070E08DE794E00E948E1BDC
:1003000010929F0310929E03E0919E03F0919F0331
:10031000E430F10590F4EE0FFF1FE85FFD4F61E060
:1003200080810E94E91980919E0390919F0301961C
:1003300090939F0380939E03E7CF10929F031092A8
:100340009E03E0919E03F0919F03E430F10590F449
:10035000EE0FFF1FE050FE4F60E080810E94E91920
:1003600080919E0390919F03019690939F038093A9
:100370009E03E7CFE4E2F3E08FE690E0A0E0B0E098
:1003800080839183A283B38384839583A683B78379
:1003900080879187A287B3873C9623E0EC39F207E8
:1003A00079F783E090E090939F0380939E030895F4
:1003B000EF92FF920F931F93CF93DF9308E012E029
:1003C0007C01EE0CFF1CEE0CFF1CC701805F9D4FF3
:1003D0007C01C0E0D0E0F80180810E5F1F4FF70183
:1003E000EC0FFD1F60810E94221A2196C430D105B6
:1003F00091F7DF91CF911F910F91FF90EF900895AA
:100400008C30910548F5FC01EE58FF4F0C943320D9
:1004100080E090E020C081E090E01DC082E090E0AC
:100420001AC083E090E017C084E090E014C085E03B
:1004300090E011C086E090E00EC087E090E00BC035
:1004400088E090E008C089E090E005C08AE090E094
:1004500002C08BE090E0ACCF0895CF93DF93EC0126
:1004600060E472E08DE794E00E94E11C8E859F8538
:10047000892B51F168E472E08DE794E00E94E11C61
:100480008AE090E095DF6AE872E080E090E00E9408
:100490000F198BE090E08CDF6AEF70E080E090E075
:1004A0000E940F198AE090E083DF6AE872E080E042
:1004B00090E00E940F198BE090E07ADF6AEF70E025
:1004C00080E090E00E940F19E881F9813196E131D6
:1004D000F10520F4E258FF4F0C9433208AE090E0BD
:1004E00067DF61E572E005C08AE090E061DF6FE5FB
:1004F00072E08DE794E00E94E11C6AE872E080E01F
:1005000090E00E940F198BE090E052DF6AEF70E0FC
:1005100080E090E00E940F198AE090E049DF6AE8ED
:1005200072E080E090E00E940F198BE090E040DFE5
:100530006AEF70E080E090E0DF91CF910C940F19AA
:100540006BE672E08DE794E00E94E11C80919C03D1
:1005500090919D032CE0289FF001299FF00D11241C
:10056000EC5DFC4F1082118212821382E9C06FE6AB
:1005700072E08DE794E00E94E11C80919C039091D1
:100580009D032CE0289FF001299FF00D1124EC5DC4
:10059000FC4F81E090E0A0E0B0E0CEC064E772E004
:1005A0008DE794E00E94E11C80919C0390919D0353
:1005B0002CE0289FF001299FF00D1124EC5DFC4FE9
:1005C00082E090E0A0E0B0E0B7C068E772E08DE7BD
:1005D00094E00E94E11C80919C0390919D032CE08B
:1005E000289FF001299FF00D1124EC5DFC4F83E062
:1005F00090E0A0E0B0E0A0C06CE772E08DE794E08E
:100600000E94E11C80919C0390919D032CE0289F07
:10061000F001299FF00D1124EC5DFC4F84E090E087
:10062000A0E0B0E089C061E872E08DE794E00E944C
:10063000E11C80919C0390919D032CE0289FF00188
:10064000299FF00D1124EC5DFC4F85E090E0A0E0C7
:10065000B0E072C067E872E08DE794E00E94E11CB0
:1006600080919C0390919D032CE0289FF001299F8D
:10067000F00D1124EC5DFC4F86E090E0A0E0B0E0CE
:100680005BC06BE872E08DE794E00E94E11C809112
:100690009C0390919D032CE0289FF001299FF00D71
:1006A0001124EC5DFC4F89E090E0A0E0B0E044C094
:1006B00063E972E08DE794E00E94E11C80919C0365
:1006C00090919D032CE0289FF001299FF00D1124AB
:1006D000EC5DFC4F8AE090E0A0E0B0E02DC066E960
:1006E00072E08DE794E00E94E11C80919C03909160
:1006F0009D032CE0289FF001299FF00D1124EC5D53
:10070000FC4F8BE090E0A0E0B0E016C06EE972E034
:100710008DE794E00E94E11C80919C0390919D03E1
:100720002CE0289FF001299FF00D1124EC5DFC4F77
:100730008CE090E0A0E0B0E080839183A283B3835B
:100740008C819D81AE81BF8184839583A683B7838D
:1007500049C06BEA72E08DE794E00E94E11C809151
:100760009C0390919D032CE0289FF001299FF00DA0
:100770001124EC5DFC4F8DE090E0A0E0B0E08083C0
:100780009183A283B3838A819B81A0E0B0E08483BC
:100790009583A683B7838C819D81AE81BF8128C05C
:1007A00065EB72E08DE794E00E94E11C80919C0370
:1007B00090919D032CE0289FF001299FF00D1124BA
:1007C000EC5DFC4F8EE090E0A0E0B0E08083918390
:1007D000A283B3834C815D816E817F814483558385
:1007E0006683778388859985AA2797FDA095BA2F78
:1007F00080879187A287B387DF91CF9108950F9368
:100800001F93CF93DF93EC0162E472E08DE794E0F5
:100810000E94E11C80919C0390919D031CE0189F15
:10082000F001199FF00D1124EC5DFC4F40815181C6
:10083000628173812AE030E08DE794E00E94B11D6F
:1008400080919C0390919D03189FF001199FF00DDA
:100850001124EC5DFC4F44815581668177812AE04B
:1008600030E08DE794E00E94B11D80919C0390914F
:100870009D03189FF001199FF00D1124EC5DFC4FB2
:1008800040855185628573852AE030E08DE794E0EC
:100890000E94B11DCF30D10508F04BC1FE01E157D8
:1008A000FF4F0C94332080919C0390919D032CE08A
:1008B000289FF001299FF00D1124EC5DFC4F20854D
:1008C0003185448155816681778181EA93E0DF91AA
:1008D000CF911F910F910C94230F80919C039091C5
:1008E0009D032CE0289FF001299FF00D1124EC5D61
:1008F000FC4F20853185448155816681778181EA6D
:1009000093E0DF91CF911F910F910C94A5168091E8
:100910009C0390919D032CE0289FF001299FF00DEE
:100920001124EC5DFC4F2085318544815581668121
:10093000778181EA93E0DF91CF911F910F910C9421
:10094000071280919C0390919D032CE0289FF00159
:10095000299FF00D1124EC5DFC4F208531854481E9
:1009600055816681778181EA93E0DF91CF911F9174
:100970000F910C94051380919C0390919D032CE0A2
:10098000289FF001299FF00D1124EC5DFC4F20857C
:100990003185448155816681778181EA93E0DF91D9
:1009A000CF911F910F9183C780919C0390919D03DC
:1009B0002CE0289FF001299FF00D1124EC5DFC4FE5
:1009C000408551856481758181EA93E0DF91CF9103
:1009D0001F910F910C94941680919C0390919D030C
:1009E0002CE0289FF001299FF00D1124EC5DFC4FB5
:1009F00020853185448155816681778100E081EAD7
:100A000093E0AAD796C080919C0390919D032CE01F
:100A1000289FF001299FF00D1124EC5DFC4F2085EB
:100A20003185448155816681778181EA93E0DF9148
:100A3000CF911F910F910C947D1480919C03909104
:100A40009D032CE0289FF001299FF00D1124EC5DFF
:100A5000FC4F20853185448155816681778181EA0B
:100A600093E0DF91CF911F910F910C94410E8091F3
:100A70009C0390919D032CE0289FF001299FF00D8D
:100A80001124EC5DFC4F20853185448155816681C0
:100A9000778181EA93E0DF91CF911F910F910C94C0
:100AA000951780919C0390919D032CE0289FF00165
:100AB000299FF00D1124EC5DFC4F6481758181EA62
:100AC00093E0DF91CF911F910F912CC580919C03F2
:100AD00090919D032CE0289FF001299FF00D112497
:100AE000EC5DFC4F2085318542855385648175819D
:100AF00081EA93E0DF91CF911F910F910C9419102F
:100B000080919C0390919D032CE0289FF001299FE8
:100B1000F00D1124EC5DFC4F208531854481558119
:100B20006681778181EA93E0DF91CF911F910F91E8
:100B3000EFC5DF91CF911F910F910895AF92BF92B2
:100B4000CF92DF92EF92FF920F931F93CF93DF9399
:100B5000CDB7DEB760970FB6F894DEBF0FBECDBF3E
:100B60006BEB72E08DE794E00E94E11C60919C03C6
:100B700070919D034AE050E08DE794E00E948F1D44
:100B800080919C0390919D033BDC09E010E08091F3
:100B900000020E94571A6C01809102020E94571AAB
:100BA000AA24A394892B09F4A12C809104020E9409
:100BB000571ABB24B394892B09F4B12C80910602F7
:100BC0000E94571A7C01CD2879F0A1101FC069EC52
:100BD00072E08DE794E00E94E11C20919C0330912B
:100BE0009D032F5F3F4F0EC0AA2081F06CEC72E096
:100BF0008DE794E00E94E11C20919C0330919D03BD
:100C00002150310930939D0320939C0380919C03D4
:100C100090919D0397FF04C010939D0300939C0344
:100C200080919C0390919D030A9724F010929D035C
:100C300010929C0380919C0390919D03E1DB6AEFED
:100C400070E080E090E00E940F19EF2829F4BB20AB
:100C500009F49DCF10E003C0B11099CF11E061ED10
:100C600072E08DE794E00E94E11C60919C0370911A
:100C70009D034AE050E08DE794E00E948F1DBB2069
:100C8000B1F16BEE72E08DE794E00E94E11C8BE025
:100C900090E08EDB66E272E080E090E00E940F1947
:100CA000809104020E94571A01E0892B09F400E0A8
:100CB000BE016F5F7F4F80EA93E042D3892B09F03A
:100CC0008FC0002369F380919C0390919D0398DB72
:100CD00066E970E080E090E00E940F198BE090E000
:100CE00067DB66E970E080E090E00E940F19112355
:100CF00009F45DC06AEF72E08DE794E00E94E11CA8
:100D000080919C0390919D031CE0189FF001199F16
:100D1000F00D1124EC5DFC4F4081518162817381A3
:100D20002AE030E08DE794E00E94B11D80919C03A1
:100D300090919D03189FF001199FF00D1124EC5D17
:100D4000FC4F80819181A281B3818F369105A105ED
:100D5000B10519F58AE090E02BDB66E272E080E0F5
:100D600090E00E940F198BE090E022DB66E272E0D7
:100D700080E090E00E940F198AE090E019DB66E2C3
:100D800072E080E090E00E940F198BE090E010DBB1
:100D900066E272E080E090E008C031DD8BE090E038
:100DA00007DB66E970E080E090E00E940F19809117
:100DB0009C0390919D0324DB80EA93E00CD2609623
:100DC0000FB6F894DEBF0FBECDBFDF91CF911F915C
:100DD0000F91FF90EF90DF90CF90BF90AF9008956C
:100DE000011171CFCE01019638DB62EF72E08DE721
:100DF00094E00E94E11C80919C0390919D030CE083
:100E0000089FF001099FF00D1124EC5DFC4F40811B
:100E10005181628173812AE030E08DE794E00E9485
:100E2000B11D80919C0390919D03089FF001099F43
:100E3000F00D1124EC5DFC4F448155816681778172
:100E40002AE030E08DE794E00E94B11D80919C0380
:100E500090919D03089FF001099FF00D1124EC5D16
:100E6000FC4F40855185628573852AE030E08DE72F
:100E700094E00E94B11D27CF6BE070E080EA93E020
:100E80008EC1CF92DF92EF92FF92CF93DF93EC016E
:100E9000882777FD8095982F0E94D31E6B017C01D7
:100EA00020E030E040E45FE30E94831F20E030E078
:100EB00048E452E40E94381E0E94A01EC617D707BD
:100EC000D4F020E030E040EA5FE3C701B6010E94C1
:100ED000831F20E030E048E452E40E94381E20E006
:100EE00030E040E85FE30E94D01D0E94A01E21E098
:100EF0006C177D070CF420E0822F90E0DF91CF91FA
:100F0000FF90EF90DF90CF900895CF92DF92EF9215
:100F1000FF92CF93DF93EC016C597F4F882777FDC9
:100F20008095982F0E94D31E6B017C0120E030E059
:100F300040E45FE30E94831F20E030E048E452E495
:100F40000E94381E0E94A01EC617D707D4F020E0CA
:100F500030E040EA5FE3C701B6010E94831F20E052
:100F600030E048E452E40E94381E20E030E040E8DF
:100F70005FE30E94D01D0E94A01E21E06C177D0738
:100F80000CF420E0822F90E0DF91CF91FF90EF9062
:100F9000DF90CF900895CF92DF92EF92FF92CF93A0
:100FA000DF93EC0164567109882777FD8095982FAF
:100FB0000E94D31E6B017C0120E030E040E45FE33F
:100FC0000E94831F20E030E048E452E40E94381E73
:100FD0000E94A01EC617D707D4F020E030E040EAF8
:100FE0005FE3C701B6010E94831F20E030E048E4C0
:100FF00052E40E94381E20E030E040E85FE30E94A7
:10100000D01D0E94A01E21E06C177D070CF420E08B
:10101000822F90E0DF91CF91FF90EF90DF90CF9003
:1010200008951F920F920FB60F9211240BB60F92D4
:101030002F933F934F935F936F937F938F939F93E0
:10104000AF93BF93EF93FF938091A3030E94571A2E
:101050002091A7033091A8032F5F3F4F3093A8033F
:101060002093A7039091A603953618F096E09093ED
:10107000A2039091A2039430C9F128F4923069F050
:101080009330D1F05EC0953009F451C0963009F02C
:1010900058C091E09093730451C0811152C02091C7
:1010A000A7033091A8032436310508F442C01092FA
:1010B00073041092A6031CC0813009F042C0E09175
:1010C000A60391E09E0F9093A603F0E02091A70362
:1010D0003091A803EE0FFF1FEE55FC4F308727839A
:1010E0001092A8031092A70394E029C0811117C0A1
:1010F000E091A60391E09E0F9093A603F0E020916B
:10110000A7033091A803EE0FFF1FEE55FC4F308769
:1011100027831092A8031092A70393E010C0209198
:10112000A7033091A8032536310558F007C0811177
:1011300008C01092A8031092A70303C095E09093F3
:10114000A2039091A5039923B9F081110AC080915F
:10115000A403882321F08091A40361E009C02F9AA1
:101160000BC08091A403882331F08091A40360E038
:101170000E94221A01C02F98FF91EF91BF91AF9169
:101180009F918F917F916F915F914F913F912F919F
:101190000F900BBE0F900FBE0F901F90189560938D
:1011A000A3031092A5030895F89482E08093B00001
:1011B0008093B10094E69093B3001092B2008093B4
:1011C000700078948093A2031092A6038091A303E9
:1011D00060E00C94E91982E08093A2031092A603C8
:1011E00008958F929F92AF92BF92CF92DF92EF922B
:1011F000FF927B01BA0180E090E00E94D11E4B017A
:101200005C01B70180E090E00E94D11E6B017C017F
:101210002DEC3CEC4CE45FE30E94831F9B01AC018E
:10122000C501B4010E94341E87FD17C02DEC3CECB3
:101230004CE45FE3C501B4010E94831F9B01AC0134
:10124000C701B6010E94341E992787FD9095882713
:10125000990F881F9927019602C080E090E0FF90C7
:10126000EF90DF90CF90BF90AF909F908F900895B8
:101270008F929F92AF92BF92CF92DF92EF92FF92A6
:101280000F931F93CF93DF936C01EB01EC84FD84EC
:1012900086E0E816F1040CF443C0EE0CFF1C06E0F7
:1012A00010E045EC842E4DE9942E4CE1A42E41E84B
:1012B000B42E8A859B85FC01E00FF11F408151818E
:1012C000F8013497E80FF91F60817181C60189DF49
:1012D000FC01A501940163E971E080E091E00E94C6
:1012E000E61F4F01AA2497FCA094BA2C86269726C5
:1012F000A826B9260E5F1F4F0E151F05D1F68C824A
:101300009D82AE82BF8280E290E0998788878FEFCE
:101310009FEF9983888361E070E080E090E003C0F4
:1013200060E070E0CB01DF91CF911F910F91FF90B2
:10133000EF90DF90CF90BF90AF909F908F900895E7
:101340000F931F93CF93DF938C01EB0189EA93E016
:101350009B878A878091A60390E09D878C878091E8
:10136000730490E09F878E878091A203853009F0F7
:1013700056C0C801C1D5882319F081E090E051C062
:10138000BE01C8010E94FA168111F7CFBE01C80143
:101390000E947D158111F1CFBE01C801C9D4811110
:1013A000ECCFBE01C8010E9463128111E6CFBE01DD
:1013B000C8010E948B138111E0CFBE01C801EFD696
:1013C0008111DBCFBE01C801D5D38111D6CFBE01BB
:1013D000C8011FD38111D1CFBE01C8010E94DE1404
:1013E0008111CBCFBE01C8010E9400188111C5CF69
:1013F000BE01C80101D18111C0CFBE01C801E1D138
:101400008111BBCFBE01C80133DF672B682B692B6D
:1014100009F0B3CF82E08093A2031092A60380E08C
:1014200090E0DF91CF911F910F910895CF93DF93BB
:10143000EB011092700061E089E00E94E91960E020
:1014400089E00E94221A9E01442737FD4095542FBF
:1014500060E47FE180E090E00E94172081E08093CB
:10146000B00089E08093B1002093B3008BEA289FFD
:10147000212D112426952093B400DF91CF9108955A
:101480008F929F92AF92BF92CF92DF92EF92FF9294
:101490006A017B01453051056105710500F10E942B
:1014A000EC184B015C0184E0C81AD108E108F1088E
:1014B000C80CD91CEA1CFB1CC814D904EA04FB04A0
:1014C00038F40E94EC1886169706A806B906C8F3E9
:1014D0000E94EC186C157D058E059F05C8F3FF90E2
:1014E000EF90DF90CF90BF90AF909F908F90089536
:1014F0002091B00020622093B0006115710521F0A9
:10150000AB0160E070E0BCCF08952091B0002F7D6A
:101510002093B0006115710521F0AB0160E070E02F
:10152000AFCF0895AF92BF92CF92DF92EF92FF922A
:101530000F931F93CF93DF93EC015B0166E270E0A2
:1015400075DF60E672E2CE01D3DF64E971E1CE01BE
:10155000DCDF0AE110E0C12CD12CE12C32E0F32ECB
:1015600064EF71E0CE01C4DFD701C601807C9E7EAE
:10157000A772B270892B8A2B8B2B19F068E572E069
:1015800002C064EA76E0CE01C0DFF694E794D79417
:10159000C7940150110921F7AA0CBB1C0FE010E001
:1015A00064EF71E0CE01A4DFB7FE03C068E572E02E
:1015B00002C064EA76E0CE01A8DFAA0CBB1C015091
:1015C000110971F764EF71E0CE0192DF64EA76E011
:1015D000CE019BDF64EF71E0CE018ADF60E070E056
:1015E000CE01DF91CF911F910F91FF90EF90DF908F
:1015F000CF90BF90AF9089CFAF92BF92CF92DF9242
:10160000EF92FF920F931F93CF93DF93EB018091A3
:10161000A603883510F480E070C0EA85FB858281DE
:10162000938160E672E271DC892BA9F3EA85FB8580
:101630008481958164E971E1AEDC892B61F3BEE1BF
:10164000CB2ED12C1DE1E12EF12C00E010E0809199
:10165000A60390E00497E816F906ACF5EA85FB8549
:10166000C701880F991FE80FF91F8081918164EFEE
:1016700071E04BDC892B79F25601AA0CBB1CEA8580
:10168000FB85EA0DFB1D8081918168E572E083DCBA
:10169000892B21F0000F111F01600DC0EA85FB8529
:1016A000EA0DFB1D8081918164EA76E074DC892B70
:1016B00049F0000F111F82E0E80EF11C82E0C80E15
:1016C000D11CC5CF760181E0E81AF108F594E794C2
:1016D000F986E8868AE2E816F1040CF49CCFC8018A
:1016E000AA2797FDA095BA2F8C839D83AE83BF83D5
:1016F00089E090E09983888381E0DF91CF911F9109
:101700000F91FF90EF90DF90CF90BF90AF90089532
:101710008F929F92AF92BF92CF92DF92EF92FF9201
:10172000CF93DF93EC014A015B01790166E270E03F
:101730007DDE6CE271E0CE01DBDE6EEE72E0CE01AA
:10174000E4DEC7010197C12CD12C7601C39404C0FB
:10175000CC0CDD1CEE1CFF1C8A95D2F7C114D10401
:10176000E104F104E1F0D701C60188219921AA2101
:10177000BB216CE271E0892B8A2B8B2B29F0CE01E7
:10178000B7DE68E077E004C0CE01B2DE6EEE72E054
:10179000CE01BBDEF694E794D794C794DFCF6CE21A
:1017A00071E0CE01A5DE60E070E0CE01DF91CF9167
:1017B000FF90EF90DF90CF90BF90AF909F908F9071
:1017C000A4CEAF92BF92CF92DF92EF92FF920F938F
:1017D0001F93CF93DF93EB018091A603803211F02A
:1017E00080E05AC0EA85FB85828193816CE271E0DA
:1017F0008CDB892BA9F3EA85FB85848195816EEECC
:1018000072E0C9DB892B61F306E010E0C12CD12C1A
:101810007601EA85FB85E00FF11F808191816CE202
:1018200071E073DB892BE1F2580182E0A80EB11C54
:10183000EA85FB85EA0DFB1D8081918168E077E0F8
:10184000AADB892B39F0CC0CDD1CEE1CFF1C689444
:10185000C0F810C0EA85FB85EA0DFB1D80819181EF
:101860006EEE72E098DB892B09F4BACFCC0CDD1C4C
:10187000EE1CFF1C0C5F1F4F0E33110551F68EE05E
:1018800090E099878887CC82DD82EE82FF828FE0AC
:1018900090E09983888381E0DF91CF911F910F9130
:1018A000FF90EF90DF90CF90BF90AF9008958F9210
:1018B0009F92AF92BF92CF92DF92EF92FF92CF931F
:1018C000DF93EC014A015B01790168E370E0AEDD72
:1018D00060E971E0CE010CDE64ED77E1CE0115DE4A
:1018E000C7010197C12CD12C7601C39404C0CC0C44
:1018F000DD1CEE1CFF1C8A95D2F7C114D104E10453
:10190000F104E1F0D701C60188219921AA21BB2168
:1019100060E971E0892B8A2B8B2B29F0CE01E8DD61
:1019200064EA76E004C0CE01E3DD60EF7AE0CE0148
:10193000ECDDF694E794D794C794DFCF60E971E0CB
:10194000CE01DF91CF91FF90EF90DF90CF90BF90CD
:10195000AF909F908F90CCCD8F929F92AF92BF927D
:10196000CF92DF92EF92FF920F93CF93DF93EC0130
:101970004A015B01790166E270E058DD011108C09F
:1019800060E47FE1CE01B4DD60EA7FE0CE01BDDD41
:10199000C7010197C12CD12C7601C39404C0CC0C93
:1019A000DD1CEE1CFF1C8A95D2F7C114D104E104A2
:1019B000F104E1F0D701C60188219921AA21BB21B8
:1019C00068E572E0892B8A2B8B2B29F0CE0190DD04
:1019D00060E476E004C0CE018BDD66E272E0CE0109
:1019E00094DDF694E794D794C794DFCF68E572E06E
:1019F000CE017EDD60E070E0CE01DF91CF910F91EE
:101A0000FF90EF90DF90CF90BF90AF909F908F901E
:101A10007CCDAF92BF92CF92DF92EF92FF920F9365
:101A20001F93CF93DF93EB018091A603823251F590
:101A3000EA85FB858281938168E572E066DA892B0D
:101A400009F18091A60390E081509048880F991F7A
:101A5000EA85FB85E80FF91F8081918168E572E0D6
:101A600054DA892B79F0198618868FEF9FEFDC0105
:101A70008C839D83AE83BF8386E090E099838883C7
:101A800081E06DC0EA85FB858281938160E47FE11E
:101A90003CDA892B21F08091A603813210F480E09A
:101AA0005EC0EA85FB858481958160EA7FE073DA18
:101AB000892BA9F358E0A52EB12C03E010E0C12C2E
:101AC000D12C7601EA85FB85C801880F991FE80FA4
:101AD000F91F8081918168E572E017DA892BF9F2AC
:101AE000EA85FB85EA0DFB1D8081918160E476E04B
:101AF00052DA892B39F0CC0CDD1CEE1CFF1C6894EB
:101B0000C0F810C0EA85FB85EA0DFB1D808191813C
:101B100066E272E040DA892B09F4C1CFCC0CDD1CFF
:101B2000EE1CFF1C0E5F1F4F84E0A80EB11C033299
:101B3000110541F6EA85FB85EA5BFF4F80819181C3
:101B400068E572E0E2D9892B09F4A9CF80E190E041
:101B500099878887CC82DD82EE82FF828DCFDF91EC
:101B6000CF911F910F91FF90EF90DF90CF90BF909A
:101B7000AF900895AF92BF92CF92DF92EF92FF9213
:101B80000F931F93CF93DF93EB018091A6038933CB
:101B900010F480E06BC0EA85FB858281938160E46C
:101BA0007FE1B3D9892BA9F3EA85FB8584819581EF
:101BB00060EA7FE0F0D9892B61F338E0A32EB12CE5
:101BC00003E010E0C12CD12C7601EA85FB85C80129
:101BD000880F991FE80FF91F8081918168E572E0F5
:101BE00094D9892BB1F2EA85FB85EA0DFB1D808132
:101BF000918160E476E0CFD9892B39F0CC0CDD1CE3
:101C0000EE1CFF1C6894C0F810C0EA85FB85EA0D45
:101C1000FB1D8081918166E272E0BDD9892B09F4B8
:101C2000B8CFCC0CDD1CEE1CFF1C0E5F1F4F84E0F8
:101C3000A80EB11C0B33110541F6EA85FB85EA5865
:101C4000FF4F8081918168E572E05FD9892B09F4AB
:101C5000A0CF8CE190E099878887CC82DD82EE82EC
:101C6000FF828AE090E09983888381E0DF91CF91C1
:101C70001F910F91FF90EF90DF90CF90BF90AF90AA
:101C800008958F929F92AF92BF92CF92DF92EF9280
:101C9000FF92CF93DF93EC014A015B01790166E289
:101CA00070E0C4DB60E47FE1CE0122DC60EA7FE02B
:101CB000CE012BDC68E572E0CE011ADCC70101978A
:101CC000C12CD12C7601C39404C0CC0CDD1CEE1CBD
:101CD000FF1C8A95D2F7C114D104E104F104D1F0BC
:101CE000D701C60188219921AA21BB21892B8A2BE2
:101CF0008B2B19F060E476E002C066E272E0CE0160
:101D000004DC68E572E0CE01F3DBF694E794D79447
:101D1000C794E1CF60E070E0CE01DF91CF91FF90FA
:101D2000EF90DF90CF90BF90AF909F908F90EDCBD2
:101D30006F927F928F929F92AF92BF92CF92DF92DB
:101D4000EF92FF920F931F93CF93DF93EB0180915C
:101D5000A603823208F45DC0EA85FB858281938107
:101D60006EE571E0D2D8892B09F453C063E0A62E4A
:101D7000B12C02E010E0C12CD12C7601350180910C
:101D8000A60390E0A816B906CCF54801880C991C6A
:101D9000EA85FB85E80DF91D808191816EE977E088
:101DA000B4D8892B39F0CC0CDD1CEE1CFF1C6894D8
:101DB000C0F80FC0EA85FB85E80DF91D808191818F
:101DC0006EEE72E0A2D8892B21F1CC0CDD1CEE1C4A
:101DD000FF1CC501880F991FEA85FB85E80FF91FD5
:101DE000808191816EE571E0D6D822E0A20EB11C0F
:101DF000892B19F00E5F1F4FC1CF830101501109CC
:101E000015950795198708870031110524F419865F
:101E1000188680E009C0CC82DD82EE82FF828CE0F1
:101E200090E09983888381E0DF91CF911F910F919A
:101E3000FF90EF90DF90CF90BF90AF909F908F90EA
:101E40007F906F9008958F929F92AF92BF92CF92A2
:101E5000DF92EF92FF92CF93DF93EC014A015B0197
:101E6000790166E270E0E2DA68E273E2CE0140DB1B
:101E700064E971E1CE0149DBC7010197C12CD12C86
:101E80007601C39404C0CC0CDD1CEE1CFF1C8A95AB
:101E9000D2F7C114D104E104F104E1F0D701C60185
:101EA00088219921AA21BB2160E372E0892B8A2B2A
:101EB0008B2B29F0CE011CDB6AE976E004C0CE0151
:101EC00017DB60E372E0CE0120DBF694E794D79451
:101ED000C794DFCF60E372E0CE010ADB60E070E020
:101EE000CE01DF91CF91FF90EF90DF90CF90BF9028
:101EF000AF909F908F9009CBAF92BF92CF92DF921D
:101F0000EF92FF920F931F93CF93DF93EB01EA853C
:101F1000FB858281938168E273E20E948507892BA9
:101F200011F480E07BC08091A603843011F5EA852E
:101F3000FB85848195816AEC78E02DD8892BC9F0E6
:101F4000EA85FB858681978160E372E00E948507C0
:101F5000892B79F0198618868FEF9FEFDC018C832F
:101F60009D83AE83BF8383E090E09983888381E083
:101F700055C08091A6038434A0F2EA85FB85848154
:101F8000958164E971E107D8892B59F206E010E0E8
:101F9000C12CD12C7601EA85FB85E00FF11F8081F1
:101FA000918160E372E00E948507892B09F4B9CF23
:101FB000580182E0A80EB11CEA85FB85EA0DFB1DE5
:101FC000808191816AE976E00E94CB07892B39F004
:101FD000CC0CDD1CEE1CFF1C6894C0F811C0EA8517
:101FE000FB85EA0DFB1D8081918160E372E00E9418
:101FF000CB07892B09F495CFCC0CDD1CEE1CFF1C04
:102000000C5F1F4F0638110531F680E290E099878A
:102010008887CC82DD82EE82FF82A5CFDF91CF91CF
:102020001F910F91FF90EF90DF90CF90BF90AF90F6
:1020300008956F927F928F929F92AF92BF92CF92AC
:10204000DF92EF92FF920F931F93CF93DF9300D015
:102050001F92CDB7DEB73C017B0163E270E02983BC
:102060003A834B835C83E2D96EEA7DE0C30140DAB8
:1020700066ED76E0C30149DA00E110E0812C70E8FA
:10208000972EA12CB12C6701E12CF12C5C814B81A6
:102090003A81298166EF71E0C30129833A834B833A
:1020A0005C8326DAD501C4018C219D21AE21BF219C
:1020B00029813A814B815C81892B8A2B8B2B49F0BA
:1020C0006CED74E0C30121DA29813A814B815C8196
:1020D0000CC060E971E0C30129833A834B835C83C0
:1020E00014DA5C814B813A812981B694A794979444
:1020F00087940150110971F600E210E0C12CD12C37
:10210000E12C90E8F92E66EF71E0C30129833A8350
:102110004B835C83EDD929813A814B815C81D70166
:10212000C60182239323A423B523892B8A2B8B2BCF
:1021300049F06CED74E0C301E8D929813A814B8103
:102140005C810CC060E971E0C30129833A834B8351
:102150005C83DBD95C814B813A812981F694E794D9
:10216000D794C7940150110971F666EF71E0C3016D
:10217000BFD960E070E0C3010F900F900F900F90F7
:10218000DF91CF911F910F91FF90EF90DF90CF9053
:10219000BF90AF909F908F907F906F90B6C98F92B5
:1021A0009F92AF92BF92CF92DF92EF92FF920F93E6
:1021B0001F93CF93DF9300D01F92CDB7DEB74B01B3
:1021C000DB011A96ED91FC911B97828193816EEA57
:1021D0007DE00E948507892B11F480E093C0D40133
:1021E0001A96ED91FC911B978481958166ED76E0BE
:1021F0000E948507892B89F3E6E0EE2EF12C20E082
:1022000030E040E050E0A12CB12CC12CD12CD40105
:102210001A96ED91FC911B97EE0DFF1D8081918127
:1022200066EF71E029833A834B835C830E948507C4
:10223000892B99F287010E5F1F4FD4011A96ED91F9
:10224000FC911B97E00FF11F808191816CED74E090
:102250000E94CB0729813A814B815C81892B39F01F
:10226000B501C60101E00E94472021601DC0D401D4
:102270001A96ED91FC911B97E00FF11F80819181DF
:1022800060E971E029833A834B835C830E94CB072A
:1022900029813A814B815C81892B09F49ECFB5015C
:1022A000C60101E00E9447205B016C01B4E0EB0E27
:1022B000F11CE6ECEE16F10409F0A9CFD401149656
:1022C0002C93149715963C93159716964C93169746
:1022D00017965C931797B501C60100E20E94622031
:1022E00012962C93129713963C93139785E090E0E7
:1022F00011969C938E9380E390E019969C938E9315
:10230000189781E00F900F900F900F90DF91CF9171
:102310001F910F91FF90EF90DF90CF90BF90AF9003
:102320009F908F9008958F929F92AF92BF92CF927D
:10233000DF92EF92FF920F931F93CF93DF937A0177
:102340006901DA01CD91DC91FB0184859585C8177F
:10235000D9070CF04AC0CE01880F991F0284F3857B
:10236000E02DE80FF91FA080B180C170DD27F1E0FA
:10237000CF27209719F484E690E002C08CE99FEF04
:102380004801880E991EB401C5010E944107892B9E
:1023900099F4800E911EB401C5010E944107892B5A
:1023A00071F4B401600F711FC5010E944107892BB0
:1023B000F9F023E030E005C021E030E002C022E087
:1023C00030E0D6018D919C91119701968217930769
:1023D00044F0F60111821082D7018D919C911197E2
:1023E00001968D939C93CE0105C081E090E002C0E0
:1023F0008FEF9FEFDF91CF911F910F91FF90EF90A3
:10240000DF90CF90BF90AF909F908F9008958F9264
:102410009F92AF92BF92CF92DF92EF92FF92CF93B3
:10242000DF93EC014A015B01790164E270E00E94F4
:10243000160A69E773E0CE015BD869E773E0CE0165
:1024400064D869E773E0CE0153D8C7010197C12C66
:10245000D12C7601C39404C0CC0CDD1CEE1CFF1CF7
:102460008A95D2F7C114D104E104F104F1F0D70147
:10247000C60188219921AA21BB2169E773E0892B34
:102480008A2B8B2B39F0CE0140D869E773E0CE015F
:102490002FD806C0CE012CD869E773E0CE0135D81D
:1024A000F694E794D794C794DDCF60E070E0CE0156
:1024B000DF91CF91FF90EF90DF90CF90BF90AF90E2
:1024C0009F908F9022C84F925F926F927F928F92CF
:1024D0009F92AF92BF92CF92DF92EF92FF920F93B3
:1024E0001F93CF93DF9300D01F92CDB7DEB76C015F
:1024F0007B011C821B8281E090E09A83898380911A
:10250000A6038D3010F480E06BC009E713E09E0154
:102510002D5F3F4FAE014F5F5F4FC60104DF892B38
:1025200091F79E012D5F3F4FAE014F5F5F4FB701A7
:10253000C601F9DE019739F79E012D5F3F4FAE01CD
:102540004F5F5F4FB701C601EEDE892BE1F6412CEC
:10255000512C3201A12CB12C8091A60390E029814D
:102560003A81281739078CF509E713E09E012D5FA2
:102570003F4FAE014F5F5F4FB701C601D4DE4C0144
:102580009E012D5F3F4FAE014F5F5F4FB701C60108
:10259000CADE21E08216910451F4892B09F0B3CFF1
:1025A000440C551C661C771C689440F80AC08928A6
:1025B00009F0A9CF019709F0A6CF440C551C661C61
:1025C000771C8FEFA81AB80AC7CFF701B186A0868B
:1025D000448255826682778281E090E09183808395
:1025E0000F900F900F900F90DF91CF911F910F914F
:1025F000FF90EF90DF90CF90BF90AF909F908F9023
:102600007F906F905F904F9008954F925F926F927E
:102610007F928F929F92AF92BF92CF92DF92EF9272
:10262000FF920F931F93CF93DF93EC012A013B019D
:10263000890164E270E00E94160A6AE67AE0CE013F
:102640000E94780A69E773E0CE010E94850A6CEB6C
:1026500071E0CE010E94780A6CEB71E0CE010E941D
:10266000850A01501109C12CD12C7601C39404C0F4
:10267000CC0CDD1CEE1CFF1C0A95D2F7812C912C92
:1026800054018394C114D104E104F10479F184E08C
:1026900088169104A104B10419F408E713E002C0FC
:1026A0000CEB11E0D701C60184219521A621B721A9
:1026B000B801892B8A2B8B2B41F0CE010E94780A1E
:1026C000B801CE010E94850A07C0CE010E94850A8A
:1026D000B801CE010E94780A8FEF881A980AA80ADA
:1026E000B80AF694E794D794C794CCCF60E070E032
:1026F000CE01DF91CF911F910F91FF90EF90DF906E
:10270000CF90BF90AF909F908F907F906F905F9091
:102710004F900C94850A2F923F924F925F926F9246
:102720007F928F929F92AF92BF92CF92DF92EF9261
:10273000FF920F931F93CF93DF9300D01F92CDB7DB
:10274000DEB76C017B011C821B82DB011C968D9124
:102750009C911D971816190614F080E0B7C0DB0194
:102760001A96ED91FC911B9782E090E09A83898301
:10277000828193816AE67AE00E948507892B69F35A
:10278000D7011A96ED91FC911B9789819A819C0142
:102790002F5F3F4F3A832983880F991FE80FF91F56
:1027A0008081918169E773E00E94CB07892BA9F2B0
:1027B0000CEB11E09E012D5F3F4FAE014F5F5F4F6D
:1027C000B701C601B0DD892B41F69E012D5F3F4F59
:1027D000AE014F5F5F4FB701C601A5DD019709F05C
:1027E000BCCF212C312C2101A12CB12C29813A8183
:1027F000F70184859585281739070CF05CC00CEB30
:1028000011E09E012D5F3F4FAE014F5F5F4FB7015B
:10281000C60189DD3C01B3E0AB16B10489F00CEBD5
:1028200011E09E012D5F3F4FAE014F5F5F4FB7013B
:10283000C60179DD4C01E3E0AE16B104F9F40FC036
:102840000CEB11E09E012D5F3F4FAE014F5F5F4FDC
:10285000B701C60168DD6816790609F37ECF0CEB77
:1028600011E09E012D5F3F4FAE014F5F5F4FB701FB
:10287000C60159DD8816990609F06FCF61147104FD
:1028800059F48A94892809F068CF220C331C441C1F
:10289000551C689420F80BC06A94672809F05DCF36
:1028A000892809F05ACF220C331C441C551CAFEF69
:1028B000AA1ABA0A9BCFB186A086248235824682A4
:1028C000578282E090E09183808381E00F900F90A7
:1028D0000F900F90DF91CF911F910F91FF90EF908C
:1028E000DF90CF90BF90AF909F908F907F906F9030
:1028F0005F904F903F902F9008958F929F92AF924C
:10290000BF92CF92DF92EF92FF92CF93DF93EC01D1
:102910004A015B01790166E270E00E94160A68E8EC
:1029200073E1CE010E94780A68E873E1CE010E944B
:10293000850AC7010197C12CD12C7601C39404C02C
:10294000CC0CDD1CEE1CFF1C8A95D2F7C114D104FF
:10295000E104F104F9F0D701C60188219921AA21E7
:10296000BB2160E372E0892B8A2B8B2B31F0CE01E7
:102970000E94780A60E476E005C0CE010E94780AE1
:1029800060E372E0CE010E94850AF694E794D79442
:10299000C794DCCF60E372E0CE010E94780A60E069
:1029A00070E0CE01DF91CF91FF90EF90DF90CF905C
:1029B000BF90AF909F908F900C94850AAF92BF927A
:1029C000CF92DF92EF92FF920F931F93CF93DF93FB
:1029D000EB01EA85FB858281938168E873E10E94BF
:1029E0008507892B11F480E07DC08091A603843097
:1029F00019F5EA85FB85848195816AEC78E00E946F
:102A0000CB07892BC9F0EA85FB858681978160E336
:102A100072E00E948507892B79F0198618868FEF5E
:102A20009FEFDC018C839D83AE83BF8387E090E0C2
:102A30009983888381E056C08091A603843498F2FC
:102A4000EA85FB858481958168E873E10E94CB0764
:102A5000892B49F206E010E0C12CD12C7601EA85E1
:102A6000FB85E00FF11F8081918160E372E00E949D
:102A70008507892B09F4B7CF580182E0A80EB11C55
:102A8000EA85FB85EA0DFB1D8081918160E476E09B
:102A90000E94CB07892B39F0CC0CDD1CEE1CFF1CEF
:102AA0006894C0F811C0EA85FB85EA0DFB1D8081A2
:102AB000918160E372E00E94CB07892B09F493CFE8
:102AC000CC0CDD1CEE1CFF1C0C5F1F4F06381105E3
:102AD00031F680E290E099878887CC82DD82EE82B1
:102AE000FF82A4CFDF91CF911F910F91FF90EF90C4
:102AF000DF90CF90BF90AF9008958F929F92AF924A
:102B0000BF92CF92DF92EF92FF920F931F93CF93DA
:102B1000DF93EB018091A6038A3108F47AC0EA853D
:102B2000FB85808191818032934050F4198618860C
:102B30008FEF9FEFDC018C839D83AE83BF836FC0DB
:102B4000828193816CEA7DE00E948507892B09F4DC
:102B500060C0EA85FB85848195816CEA7DE00E94F6
:102B60008507892B09F455C054E0A52EB12C03E04C
:102B700010E0C12CD12C76018091A60390E0A8161C
:102B8000B906E4F5EA85FB85C801880F991FE80FAF
:102B9000F91F8081918166EB73E00E94CB07892B3E
:102BA00061F14501880C991CEA85FB85E80DF91D4A
:102BB0008081918160E679E00E948507892B39F058
:102BC000CC0CDD1CEE1CFF1C6894C0F810C0EA851C
:102BD000FB85E80DF91D808191816CEB72E00E940C
:102BE0008507892BB1F0CC0CDD1CEE1CFF1C0E5FA1
:102BF0001F4F82E0A80EB11CBFCF85010150110903
:102C000015950795198708870C30110524F4198646
:102C1000188680E009C0CC82DD82EE82FF828BE0E4
:102C200090E09983888381E0DF91CF911F910F918C
:102C3000FF90EF90DF90CF90BF90AF909F908F90DC
:102C400008954F925F926F927F928F929F92AF9270
:102C5000BF92CF92DF92EF92FF920F931F93CF9389
:102C6000DF93EC012A013B01890166E270E00E94DA
:102C7000160A01501109812C912C5401839404C02F
:102C8000880C991CAA1CBB1C0A95D2F703E010E023
:102C900075016401C114D104E104F104F9F0D70114
:102CA000C60184219521A621B72165EF70E0892B0B
:102CB0008A2B8B2B31F0CE010E94780A6DE077E0F1
:102CC00005C0CE010E94780A6BE173E0CE010E943C
:102CD000850AF694E794D794C794DCCF65EF70E04B
:102CE000CE010E94780A6BE173E0CE010E94850A52
:102CF00068E270E080E090E092D2409483E0582651
:102D00000150110929F6DF91CF911F910F91FF908A
:102D1000EF90DF90CF90BF90AF909F908F907F907B
:102D20006F905F904F900895440F551F440F551FAB
:102D3000426020E030E0362F330F330F422B532B0D
:102D400060E070E02FE030E07CCF8F929F92AF92F6
:102D5000BF92CF92DF92EF92FF92CF93DF93EC017D
:102D60004A015B01790168E270E00E94160A60E6A0
:102D700079E0CE010E94780A68E572E0CE010E94F7
:102D8000850AC7010197C12CD12C7601C39404C0D8
:102D9000CC0CDD1CEE1CFF1C8A95D2F7C114D104AB
:102DA000E104F104E1F0D701C60188219921AA21AB
:102DB000BB21892B8A2B8B2B19F060EB74E002C0AE
:102DC00068E572E0CE010E94780A68E572E0CE0103
:102DD0000E94850AF694E794D794C794DFCFDF91D9
:102DE000CF91FF90EF90DF90CF90BF90AF909F90EA
:102DF0008F9008958F929F92AF92BF92CF92DF9261
:102E0000EF92FF920F931F93CF93DF93EB0180918B
:102E1000A6038A3108F471C0EA85FB85808191811F
:102E2000843F914060F4198618868FEF9FEFDC0194
:102E30008C839D83AE83BF838BE090E066C08281EC
:102E4000938160E679E00E948507892B09F455C0DB
:102E500073E0A72EB12C02E010E0C12CD12C76013A
:102E60008091A60390E0A816B906E4F5EA85FB85F3
:102E7000C801880F991FE80FF91F8081918168E5CB
:102E800072E00E94CB07892B61F14501880C991CE7
:102E9000EA85FB85E80DF91D8081918160EB74E086
:102EA0000E948507892B39F0CC0CDD1CEE1CFF1C21
:102EB0006894C0F810C0EA85FB85E80DF91D808193
:102EC000918168E572E00E948507892BB1F0CC0CF6
:102ED000DD1CEE1CFF1C0E5F1F4F82E0A80EB11C14
:102EE000BFCF8501015011091595079519870887EE
:102EF0000C30110524F41986188680E009C0CC82B4
:102F0000DD82EE82FF8284E090E09983888381E015
:102F1000DF91CF911F910F91FF90EF90DF90CF90B5
:102F2000BF90AF909F908F9008958F929F92AF9295
:102F3000BF92CF92DF92EF92FF92CF93DF93EC019B
:102F40004A015B01790166E270E00E94160A6EEEAA
:102F500072E0CE010E94780A6EEE72E0CE010E940D
:102F6000850A62E27BE0CE010E94780A62E27BE0A1
:102F7000CE010E94850AC7010197C12CD12C760190
:102F8000C39404C0CC0CDD1CEE1CFF1C8A95D2F748
:102F9000C114D104E104F104F9F0D701C60188217C
:102FA0009921AA21BB216EEE72E0892B8A2B8B2BF3
:102FB00031F0CE010E94780A66E678E005C0CE01C5
:102FC0000E94780A6EEE72E0CE010E94850AF694A5
:102FD000E794D794C794DCCF6EEE72E0CE010E94E6
:102FE000780A6EEE72E0CE01DF91CF91FF90EF9004
:102FF000DF90CF90BF90AF909F908F900C94850AF8
:10300000AF92BF92CF92DF92EF92FF920F931F93F6
:10301000CF93DF93EB018091A603863410F480E018
:1030200086C0EA85FB85828193816EEE72E00E9404
:103030008507892BA1F3EA85FB85848195816EEE56
:1030400072E00E94CB07892B51F3EA85FB858681CC
:10305000978162E27BE00E948507892B01F3EA8574
:10306000FB858085918562E27BE00E94CB07892BFE
:10307000B1F25CE0A52EB12C05E010E0C12CD12C02
:103080007601EA85FB85C801880F991FE80FF91FB3
:10309000808191816EEE72E00E948507892B09F490
:1030A000BECFEA85FB85EA0DFB1D8081918166E636
:1030B00078E00E94CB07892B39F0CC0CDD1CEE1C8C
:1030C000FF1C6894C0F811C0EA85FB85EA0DFB1D62
:1030D000808191816EEE72E00E94CB07892B09F40A
:1030E0009ECFCC0CDD1CEE1CFF1C0E5F1F4F84E03E
:1030F000A80EB11C0534110521F6EA85FB85E657BB
:10310000FF4F808191816EEE72E00E948507892BCE
:1031100009F485CF80E290E099878887CC82DD82B0
:10312000EE82FF8288E090E09983888381E0DF91DE
:10313000CF911F910F91FF90EF90DF90CF90BF90B4
:10314000AF9008951F920F920FB60F9211242F93F4
:103150003F938F939F93AF93BF938091750490910A
:103160007604A0917704B09178043091740423E040
:10317000230F2D3720F40196A11DB11D05C026E8AF
:10318000230F0296A11DB11D209374048093750432
:1031900090937604A0937704B09378048091790497
:1031A00090917A04A0917B04B0917C040196A11DBA
:1031B000B11D8093790490937A04A0937B04B0931B
:1031C0007C04BF91AF919F918F913F912F910F9070
:1031D0000FBE0F901F9018953FB7F8948091790417
:1031E00090917A04A0917B04B0917C0426B5A89BB1
:1031F00005C02F3F19F00196A11DB11D3FBF6627E5
:10320000782F892F9A2F620F711D811D911D42E029
:10321000660F771F881F991F4A95D1F70895CF929F
:10322000DF92EF92FF92CF93DF936B017C01D4DFAB
:10323000EB01C114D104E104F10479F0AFD4CCDF87
:103240006C1B7D0B683E7340A0F381E0C81AD10867
:10325000E108F108C851DC4FECCFDF91CF91FF902E
:10326000EF90DF90CF900895789484B5826084BD0C
:1032700084B5816084BD85B5826085BD85B581607A
:1032800085BDEEE6F0E0808181608083E1E8F0E0DA
:103290001082808182608083808181608083E0E809
:1032A000F0E0808181608083E1EBF0E080818460E8
:1032B0008083E0EBF0E0808181608083E1E9F0E0F1
:1032C000808182608083808181608083E0E9F0E09A
:1032D000808181608083E1EAF0E080818260808388
:1032E000808181608083E0EAF0E08081816080837A
:1032F000E1E2F1E08081826080838081816080836F
:10330000E0E2F1E0808181608083EAE7F0E08081A3
:1033100084608083808182608083808181608083FB
:103320008081806880831092C100089590E0FC0144
:103330003197E231F10508F04BC0E256FF4F93C6DA
:10334000809180008F7703C0809180008F7D809373
:103350008000089580918000877FF9CF84B58F77B2
:1033600002C084B58F7D84BD08958091B0008F77B1
:1033700003C08091B0008F7D8093B000089580914C
:1033800090008F7707C0809190008F7D03C080915F
:103390009000877F8093900008958091A0008F77A0
:1033A00007C08091A0008F7D03C08091A000877F1F
:1033B0008093A0000895809120018F7707C08091AD
:1033C00020018F7D03C080912001877F80932001A1
:1033D0000895CF93DF9390E0FC01EA55FE4F2491CE
:1033E000FC01E451FE4F8491882349F190E0880F5D
:1033F000991FFC01EA59FD4FA591B491845B9D4F43
:10340000FC01C591D4919FB7611108C0F8948C91CB
:10341000209582238C93888182230AC0623051F4E4
:10342000F8948C91322F309583238C938881822B52
:10343000888304C0F8948C91822B8C939FBFDF917A
:10344000CF9108950F931F93CF93DF931F92CDB722
:10345000DEB7282F30E0F901E05AFE4F8491F901E0
:10346000EA55FE4F1491F901E451FE4F04910023F7
:10347000C1F0882319F0698359DF6981E02FF0E0FA
:10348000EE0FFF1FE45BFD4FA591B4919FB7F89439
:103490008C91611103C01095812301C0812B8C9305
:1034A0009FBF0F90DF91CF911F910F910895CF9300
:1034B000DF93282F30E0F901E05AFE4F8491F901A3
:1034C000EA55FE4FD491F901E451FE4FC491CC234B
:1034D00089F081112BDFEC2FF0E0EE0FFF1FEE5C87
:1034E000FD4FA591B4912C912D2381E090E021F422
:1034F00080E002C080E090E0DF91CF910895FC0170
:10350000818D228D90E0805C9F4F821B91098F738B
:1035100099270895FC01918D828D981731F0828D45
:10352000E80FF11D858D90E008958FEF9FEF0895CE
:10353000FC01918D828D981761F0828DDF01A80FBB
:10354000B11D5D968C91928D9F5F9F73928F90E0DD
:1035500008958FEF9FEF08958DE49CE1892B39F05A
:1035600080E090E0892B19F098D1811125C080E08E
:1035700090E0892B41F080E090E0892B21F00E94BF
:10358000000081111CC080E090E0892B41F080E0B8
:1035900090E0892B21F00E940000811113C080E08F
:1035A00090E0892BA1F080E090E0892B81F00E94CF
:1035B000000081110AC008950E940000D8CF0E9427
:1035C0000000E1CF0E940000EACF0C9400000895B3
:1035D000FC01848DDF01A80FB11DA35ABF4F2C91B0
:1035E000848D90E001968F739927848FA689B7897F
:1035F0002C93A089B1898C9180648C93938D848D58
:10360000981306C00288F389E02D80818F7D808326
:103610000895CF93DF93EC01888D8823C1F0EA8968
:10362000FB89808185FD05C0A889B9898C9186FDBB
:103630000EC00FB607FCF5CF808185FFF2CFA889B9
:10364000B9898C9185FFEDCFCE01C2DFE8CFDF9144
:10365000CF910895CF92DF92FF920F931F93CF9354
:10366000DF931F92CDB7DEB76C0181E0D60158968B
:103670008C9358975B969C915B975C968C915C972A
:10368000981307C05096ED91FC915197808185FD6C
:103690002DC0F601038D10E00F5F1F4F0F73112730
:1036A000F02EF601848DF81210C00FB607FCF9CF8A
:1036B000D6015096ED91FC915197808185FFF1CF15
:1036C000C601698385DF6981ECCF838DE80FF11D29
:1036D000E35AFF4F6083D6015B960C935B9752963B
:1036E000ED91FC915397808180620CC0D601569673
:1036F000ED91FC91579760835096ED91FC91519715
:1037000080818064808381E090E00F90DF91CF9191
:103710001F910F91FF90DF90CF900895BF92CF92AD
:10372000DF92EF92FF92CF93DF93EC016A017B016E
:10373000B22EE889F98982E08083411581EE58072D
:103740006105710599F060E079E08DE390E0A701F3
:1037500096014BD42150310941095109569547959D
:1037600037952795211580E1380790F0E889F98988
:10377000108260E874E88EE190E0A701960135D4EC
:10378000215031094109510956954795379527959B
:10379000EC85FD853083EE85FF852083188EEC89CE
:1037A000FD89B082EA89FB89808180618083EA8912
:1037B000FB89808188608083EA89FB8980818068B9
:1037C0008083EA89FB8980818F7D8083DF91CF911F
:1037D000FF90EF90DF90CF90BF9008951F920F92CF
:1037E0000FB60F9211240BB60F922F938F939F93C6
:1037F000EF93FF93E0918D04F0918E048081E0912E
:103800009304F091940482FD12C0908180919604FB
:103810008F5F8F7320919704821751F0E091960487
:10382000F0E0E358FB4F958F8093960401C08081B0
:10383000FF91EF919F918F912F910F900BBE0F9061
:103840000FBE0F901F9018951F920F920FB60F92F8
:1038500011240BB60F922F933F934F935F936F9367
:103860007F938F939F93AF93BF93EF93FF938DE7D6
:1038700094E0AEDEFF91EF91BF91AF919F918F9158
:103880007F916F915F914F913F912F910F900BBE60
:103890000F900FBE0F901F9018958DE794E02FDECC
:1038A00021E0892B09F420E0822F089510928004F2
:1038B00010927F0488EE93E0A0E0B0E08093810452
:1038C00090938204A0938304B093840486E093E0F1
:1038D00090937E0480937D0485EC90E090938A041D
:1038E0008093890484EC90E090938C0480938B0403
:1038F00080EC90E090938E0480938D0481EC90E0B6
:103900009093900480938F0482EC90E090939204C3
:103910008093910486EC90E09093940480939304B8
:1039200010929604109297041092980410929904A1
:103930000895CF92DF92EF92FF920F931F93CF9350
:10394000DF937C016A01EB0100E010E00C151D051E
:1039500071F06991D701ED91FC910190F081E02D1A
:10396000C7011995892B19F00F5F1F4FEFCFC801C1
:10397000DF91CF911F910F91FF90EF90DF90CF904B
:1039800008956115710581F0DB010D900020E9F7C4
:10399000AD0141505109461B570BDC01ED91FC91E3
:1039A0000280F381E02D199480E090E00895DC011D
:1039B000ED91FC910190F081E02D199462E173E0AA
:1039C000E0CF0F931F93CF93DF93EC01DADF8C01ED
:1039D000CE01F4DF800F911FDF91CF911F910F91E6
:1039E00008958F929F92AF92BF92CF92DF92EF9203
:1039F000FF920F931F93CF93DF93CDB7DEB7A197BD
:103A00000FB6F894DEBF0FBECDBF7C01C42EE52FEC
:103A1000CB01D22E19A221E02D1510F02AE0D22ED2
:103A20008E010F5D1F4F8D2C912CA12CB12C6C2D74
:103A30007E2FA5019401D9D28C2DD29E80191124FC
:103A4000015011098A3014F4805D01C0895CF801CD
:103A50008083211531054105510521F0C22EE32F48
:103A6000CA01E5CFB801C7018CDFA1960FB6F89463
:103A7000DEBF0FBECDBFDF91CF911F910F91FF90A1
:103A8000EF90DF90CF90BF90AF909F908F90089570
:103A9000CF92DF92EF92FF920F931F93CF93DF931A
:103AA000EC016A017B012115310579F4E881F98186
:103AB0000190F081E02D642FDF91CF911F910F9144
:103AC000FF90EF90DF90CF9019942A303105D9F410
:103AD00077FF18C06DE26BDF8C0144275527BA01D0
:103AE0004C195D096E097F092AE0CE017ADF800F4B
:103AF000911FDF91CF911F910F91FF90EF90DF9079
:103B0000CF9008952AE0B701A601CE01DF91CF91B1
:103B10001F910F91FF90EF90DF90CF9062CF0F93A6
:103B20001F93CF93DF93EC019A01AB01662757FDFA
:103B30006095762FADDF8C01CE0140DF800F911FA5
:103B4000DF91CF911F910F9108952115310541F417
:103B5000DC01ED91FC910190F081E02D642F19942E
:103B600040CF0F931F93CF93DF93EC01EEDF8C01D7
:103B7000CE0124DF800F911FDF91CF911F910F9114
:103B80000895089571DBFDDF0E947401CCEADAE14B
:103B90000E949E052097E1F3DFDCFACF089550588C
:103BA000BB27AA270ED075C166D130F06BD120F0AB
:103BB00031F49F3F11F41EF45BC10EF4E095E7FB76
:103BC00051C1E92F77D180F3BA17620773078407D1
:103BD000950718F071F49EF58FC10EF4E0950B2E49
:103BE000BA2FA02D0B01B90190010C01CA01A0014F
:103BF0001124FF27591B99F0593F50F4503E68F1AA
:103C00001A16F040A22F232F342F4427585FF3CFEA
:103C1000469537952795A795F0405395C9F77EF4BB
:103C20001F16BA0B620B730B840BBAF09150A1F004
:103C3000FF0FBB1F661F771F881FC2F70EC0BA0F8A
:103C4000621F731F841F48F4879577956795B79512
:103C5000F7959E3F08F0B3CF9395880F08F099270A
:103C6000EE0F979587950895D9D008F481E00895CF
:103C70000CD00FC107D140F0FED030F021F45F3FEF
:103C800019F0F0C0511139C1F3C014D198F3992340
:103C9000C9F35523B1F3951B550BBB27AA27621710
:103CA0007307840738F09F5F5F4F220F331F441F55
:103CB000AA1FA9F333D00E2E3AF0E0E830D091508D
:103CC0005040E695001CCAF729D0FE2F27D0660F7A
:103CD000771F881FBB1F261737074807AB07B0E8B9
:103CE00009F0BB0B802DBF01FF2793585F4F2AF0CF
:103CF0009E3F510568F0B6C000C15F3FECF3983EAF
:103D0000DCF3869577956795B795F7959F5FC9F72B
:103D1000880F911D9695879597F90895E1E0660FB4
:103D2000771F881FBB1F621773078407BA0720F02D
:103D3000621B730B840BBA0BEE1F88F7E095089596
:103D400004D06894B111D9C00895BCD088F09F57B1
:103D500090F0B92F9927B751A0F0D1F0660F771FD7
:103D6000881F991F1AF0BA95C9F712C0B13081F0B7
:103D7000C3D0B1E00895C0C0672F782F8827B85FFF
:103D800039F0B93FCCF3869577956795B395D9F718
:103D90003EF490958095709561957F4F8F4F9F4F22
:103DA0000895E89409C097FB3EF49095809570952E
:103DB00061957F4F8F4F9F4F9923A9F0F92F96E977
:103DC000BB279395F695879577956795B795F111EC
:103DD000F8CFFAF4BB0F11F460FF1BC06F5F7F4F89
:103DE0008F4F9F4F16C0882311F096E911C077239B
:103DF00021F09EE8872F762F05C0662371F096E8A4
:103E0000862F70E060E02AF09A95660F771F881F72
:103E1000DAF7880F9695879597F90895990F000816
:103E2000550FAA0BE0E8FEEF16161706E807F9078C
:103E3000C0F012161306E407F50798F0621B730B27
:103E4000840B950B39F40A2661F0232B242B252BA8
:103E500021F408950A2609F4A140A6958FEF811D4B
:103E6000811D089597F99F6780E870E060E00895EC
:103E70009FEF80EC089500240A9416161706180682
:103E80000906089500240A9412161306140605065E
:103E90000895092E0394000C11F4882352F0BB0FEF
:103EA00040F4BF2B11F460FF04C06F5F7F4F8F4F52
:103EB0009F4F089557FD9058440F551F59F05F3F8D
:103EC00071F04795880F97FB991F61F09F3F79F03C
:103ED00087950895121613061406551FF2CF4695BE
:103EE000F1DF08C0161617061806991FF1CF869540
:103EF0007105610508940895E894BB276627772724
:103F0000CB0197F908950BD0C4CFB5DF28F0BADF05
:103F100018F0952309F0A6CFABCF1124EECFCADF5E
:103F2000A0F3959FD1F3950F50E0551F629FF001CC
:103F3000729FBB27F00DB11D639FAA27F00DB11D25
:103F4000AA1F649F6627B00DA11D661F829F2227AE
:103F5000B00DA11D621F739FB00DA11D621F839F35
:103F6000A00D611D221F749F3327A00D611D231F0B
:103F7000849F600D211D822F762F6A2F11249F5759
:103F800050408AF0E1F088234AF0EE0FFF1FBB1F7C
:103F9000661F771F881F91505040A9F79E3F51051B
:103FA00070F060CFAACF5F3FECF3983EDCF38695CC
:103FB00077956795B795F795E7959F5FC1F7FE2BC6
:103FC000880F911D9695879597F90895DB018F933A
:103FD0009F934FD0BF91AF91A29F800D911DA39F42
:103FE000900DB29F900D11240895A1E21A2EAA1BE4
:103FF000BB1BFD010DC0AA1FBB1FEE1FFF1FA21799
:10400000B307E407F50720F0A21BB30BE40BF50B95
:10401000661F771F881F991F1A9469F7609570951E
:10402000809590959B01AC01BD01CF010895052EAF
:1040300097FB16F400940FD057FD05D0D6DF07FC90
:1040400002D046F408C050954095309521953F4FD9
:104050004F4F5F4F089590958095709561957F4F74
:104060008F4F9F4F0895EE0FFF1F0590F491E02DA5
:10407000199444D0A59F900DB49F900DA49F800DDE
:10408000911D112408950790F691E02D19940F9336
:10409000083090F0982F872F762F652F542F432FBD
:1040A000322F22270850F4CF220F331F441F551FF1
:1040B000661F771F881F991F0A95B2F70F91089501
:1040C00097FB10F8169400080F93083098F00850EA
:1040D000232F342F452F562F672F782F892F902D80
:1040E000F4CF05949795879577956795579547955C
:1040F000379527950A95AAF70F910895A29FB001C9
:10410000B39FC001A39F700D811D1124911DB29F0B
:0E411000700D811D1124911D0895F894FFCFAC
:10411E001B001C001D001E00240025002600270089
:10412E00000000000000000100000100000001017D
:10413E000001000000010001000101000001010169
:10414E000100000001000001010101000101010157
:10415E006465636F646564006F766572666C6F7715
:10416E00006E6F20656E636F6E747261646F0064B3
:10417E006573636F6E6F6369646F004E45430053E2
:10418E004F4E59005243350052433600444953486E
:10419E00005348415250004A56430053414D535527
:1041AE004E47004C47005748594E5445520041491E
:1041BE0057415F52435F543530310050414E4153A9
:1041CE004F4E49430044656E6F6E006E756D65729D
:1041DE006F20696E6963696F00757000646F776E2A
:1041EE00006E756D65726F20696E6963696F5F73BE
:1041FE00616C69725F6369636C6F004772616261C3
:10420E007200312D2D2D2B2B2B0070756C73204FC2
:10421E004B00000000002A1B991C7F1A981A8A1A5C
:10422E00091B0D0A006E616E00696E66006F766680
:04423E00002E00004E
:020000023000CC
:10E000000D9489F10D94B2F10D94B2F10D94B2F129
:10E010000D94B2F10D94B2F10D94B2F10D94B2F1F0
:10E020000D94B2F10D94B2F10D94B2F10D94B2F1E0
:10E030000D94B2F10D94B2F10D94B2F10D94B2F1D0
:10E040000D94B2F10D94B2F10D94B2F10D94B2F1C0
:10E050000D94B2F10D94B2F10D94B2F10D94B2F1B0
:10E060000D94B2F10D94B2F10D94B2F10D94B2F1A0
:10E070000D94B2F10D94B2F10D94B2F10D94B2F190
:10E080000D94B2F10D94B2F10D94B2F10D94B2F180
:10E090000D94B2F10D94B2F10D94B2F10D94B2F170
:10E0A0000D94B2F10D94B2F10D94B2F10D94B2F160
:10E0B0000D94B2F10D94B2F10D94B2F10D94B2F150
:10E0C0000D94B2F10D94B2F10D94B2F10D94B2F140
:10E0D0000D94B2F10D94B2F10D94B2F10D94B2F130
:10E0E0000D94B2F141546D656761323536300041AF
:10E0F000726475696E6F206578706C6F72657220DE
:10E1000073746B3530305632206279204D4C530099
:10E11000426F6F746C6F616465723E004875683F52
:10E1200000436F6D70696C6564206F6E203D200048
:10E130004350552054797065202020203D20005FF9
:10E140005F4156525F415243485F5F3D2000415658
:10E1500052204C696243205665723D20004743437C
:10E160002056657273696F6E203D20004350552024
:10E1700049442020202020203D20004C6F7720663D
:10E18000757365202020203D20004869676820665F
:10E190007573652020203D200045787420667573D6
:10E1A00065202020203D20004C6F636B2066757336
:10E1B000652020203D20004D617220203720323024
:10E1C000313300312E362E3800342E332E350056A2
:10E1D00023202020414444522020206F7020636F70
:10E1E00064652020202020696E73747275637469E1
:10E1F0006F6E2061646472202020496E74657272B3
:10E20000757074006E6F20766563746F7200726A49
:10E210006D702020006A6D70200057686174207056
:10E220006F72743A00506F7274206E6F7420737541
:10E2300070706F72746564004D7573742062652030
:10E2400061206C6574746572002000577269747483
:10E25000696E672045450052656164696E672045B7
:10E26000450045452065727220636E743D00504F35
:10E27000525400303D5A65726F2061646472003FF1
:10E280003D43505520737461747300403D454550C3
:10E29000524F4D207465737400423D426C696E6B41
:10E2A000204C454400453D44756D70204545505215
:10E2B0004F4D00463D44756D7020464C415348001B
:10E2C000483D48656C70004C3D4C69737420492F83
:10E2D0004F20506F72747300513D51756974005234
:10E2E0003D44756D702052414D00563D73686F7707
:10E2F00020696E7465727275707420566563746FF0
:10E30000727300593D506F727420626C696E6B00BD
:10E310002A0011241FBECFEFD1E2DEBFCDBF01E046
:10E320000CBF12E0A0E0B2E0EEE1FDEF03E00BBFB6
:10E3300002C007900D92A030B107D9F712E0A0E01B
:10E34000B2E001C01D92AE30B107E1F70F9460F367
:10E350000D948DFE01E20EBF0FEF0DBF11241FBE05
:10E360000D9460F30D9400F020E030E040ED57E0B4
:10E3700005C0FA013197F1F72F5F3F4F2817390792
:10E38000C0F308959C01260F311DC901A0E0B0E043
:10E390002F5F3F4FABBFFC018791882361F08093D3
:10E3A000C6008091C00086FFFCCF8091C0008064D1
:10E3B0008093C000EACF08958DE08093C6008091DD
:10E3C000C00086FFFCCF8091C00080648093C000B5
:10E3D0008AE08093C6008091C00086FFFCCF8091C8
:10E3E000C00080648093C00008950F94C2F10F9420
:10E3F000DCF10895FC019081992359F09093C600B7
:10E400008091C00086FFFCCF8091C0008064809323
:10E41000C0003196992379F70895282F982F929567
:10E420009F70892F805D8A3308F0895F8093C600D2
:10E430008091C00086FFFCCF8091C00080648093F3
:10E44000C000822F8F70982F905D9A3308F0995FEB
:10E450009093C6008091C00086FFFCCF8091C000E1
:10E4600080648093C00008959C01FB01853691056E
:10E470001CF46330710594F0C90164E670E00F94F8
:10E480002EFE605D7F4F6093C6008091C00086FFC6
:10E49000FCCF8091C00080648093C0002B30310598
:10E4A00014F43297B4F0C90164E670E00F942EFEC4
:10E4B0006AE070E00F942EFE605D7F4F6093C600AF
:10E4C0008091C00086FFFCCF8091C0008064809363
:10E4D000C000C9016AE070E00F942EFEC0968093E0
:10E4E000C6008091C00086FFFCCF8091C000806490
:10E4F0008093C00008951F93182F8EE692EE60E07F
:10E500000F94C2F11093C6008091C00086FFFCCF2B
:10E510008091C00080648093C0000F94DCF11F9153
:10E5200008952F923F924F925F926F927F928F92B7
:10E530009F92AF92BF92CF92DF92EF92FF920F9392
:10E540001F93DF93CF93CDB7DEB762970FB6F894E2
:10E55000DEBF0FBECDBF382E622ECA01DB015C01CB
:10E560006D01772420E2222E2E010894411C511CBB
:10E570008BC081E0A81680E0B80681E0C80680E084
:10E58000D80628F0C601AA27BB270F940DF2BB2797
:10E59000AD2D9C2D8B2D0F940DF28A2D0F940DF225
:10E5A0002092C6008091C00086FFFCCF8091C00001
:10E5B00080648093C0009DE29093C6008091C0006B
:10E5C00086FFFCCF8091C00080648093C0002092C1
:10E5D000C6008091C00086FFFCCF8091C00080649F
:10E5E0008093C00019828601750188249924A1E0D6
:10E5F0003A1651F03A1620F0B2E03B1661F409C029
:10E600000BBFF701779007C0C7010F9477FE782EF4
:10E6100002C0F7017080872D0F940DF22092C60082
:10E620008091C00086FFFCCF8091C0008064809301
:10E63000C000872D8052F401EF70F0708F3520F408
:10E64000E40DF51D708204C0E40DF51D8EE280839B
:10E650000894E11CF11C011D111D0894811C911CE2
:10E6600090E18916910409F0C2CF80E190E0A0E02A
:10E67000B0E0A80EB91ECA1EDB1E198AC2010F9493
:10E68000FAF10F94DCF16A94662009F072CF629679
:10E690000FB6F894DEBF0FBECDBFCF91DF911F91B3
:10E6A0000F91FF90EF90DF90CF90BF90AF909F9031
:10E6B0008F907F906F905F904F903F902F90089534
:10E6C0002F923F924F925F926F927F928F929F9282
:10E6D000AF92BF92CF92DF92EF92FF920F931F9370
:10E6E000DF93CF93CDB7DEB7CD53D1400FB6F894BB
:10E6F000DEBF0FBECDBF01E20EBF0FEF0DBF94B75F
:10E70000F894A89514BE80916000886180936000A1
:10E7100010926000789493FF05C0E0910002F091A0
:10E7200001021995279A2F9A8091C00082608093E8
:10E73000C00080E18093C40088E18093C1000000A4
:10E74000EE24FF24870144E0A42EB12CCC24DD2448
:10E7500024C0C5010197F1F70894E11CF11C011DCB
:10E76000111D21E2E2162EE4F20620E0020720E06D
:10E77000120718F031E0C32ED12CC801B70127ECE5
:10E780003BE140E050E00F9441FE611571058105C9
:10E79000910519F485B1805885B98091C00087FD35
:10E7A00003C0C114D104A9F2A6014F5F5F4FC25E3E
:10E7B000DE4F59834883CE51D140C25EDE4F8881FF
:10E7C0009981CE51D140019711F00D9410FEC05D9A
:10E7D000DE4F19821882C053D14060E0C15DDE4F28
:10E7E0001882CF52D14088249924C35DDE4F19820C
:10E7F0001882CD52D140C05EDE4F188219821A8233
:10E800001B82C052D140CE5CDE4F188219821A8220
:10E810001B82C253D140EE24FF2487010BBFF701B6
:10E8200007911691C45CDE4F19830883CC53D14005
:10E830000D940BFEC25EDE4F28813981CE51D1404E
:10E840002130310509F52091C600C25EDE4F1982E4
:10E850001882CE51D14022C02F5F3F4F4F4F5F4FA4
:10E86000213082E138078AE7480780E0580780F0C6
:10E87000C45CDE4FE881F981CC53D140EF5FFF4F9C
:10E8800019F0EE27FF27099420E030E040E050E047
:10E890008091C00087FFE0CF2091C600C35DDE4FAE
:10E8A00048815981CD52D1404F5F5F4FC35DDE4FEC
:10E8B00059834883CD52D140213209F063C64A3092
:10E8C000510508F05FC60894811C911C53E0851621
:10E8D000910409F059C600E010E018C081E280936D
:10E8E000C6008091C00086FFFCCF8091C00080648C
:10E8F0008093C0002F5F3F4F2931310579F70F9486
:10E90000DCF10F5F1F4F0530110519F020E030E0FA
:10E91000E5CF10920A0210920B0210920C02109294
:10E920000D02109206021092070210920802109235
:10E930000902109202021092030210920402109235
:10E9400005028FEE90EE60E00F94F5F180E191EE1C
:10E9500060E00F94C2F18091C00087FFFCCF9091DE
:10E96000C600903608F09F759032B8F09093C600BC
:10E970008091C00086FFFCCF8091C00080648093AE
:10E98000C000A0E2A093C6008091C00086FFFCCF2B
:10E990008091C00080648093C000983409F4D7C18E
:10E9A0009934B8F4923409F459C1933458F490333B
:10E9B00019F1903308F4E3C59F33A1F1903409F0C5
:10E9C000DEC5BDC0953409F470C1963409F0D7C5D1
:10E9D00098C1923509F42BC2933538F49C3409F46C
:10E9E000F5C1913509F0CBC518C2963509F445C279
:10E9F000993509F0C4C567C483E792EE62E00F94CD
:10EA0000F5F110920602109207021092080210927D
:10EA1000090210920A0210920B0210920C0210923C
:10EA20000D0213C18FE792EE62E00F94F5F18FEEC5
:10EA300090EE60E00F94F5F181E291EE60E00F94CA
:10EA4000C2F187EB91EE60E00F94F5F180E391EE77
:10EA500060E00F94C2F184EE90EE60E00F94F5F167
:10EA60008FE391EE60E00F94C2F186E090E061E008
:10EA700070E00F9434F20F94DCF18DE591EE60E0DC
:10EA80000F94C2F189EC91EE60E00F94F5F18EE401
:10EA900091EE60E00F94C2F183EC91EE60E00F9490
:10EAA000F5F18CE691EE60E00F94C2F18EE10F94E7
:10EAB0000DF288E90F940DF281E00F940DF20F949E
:10EAC000DCF18BE791EE60E00F94C2F119E0E0E039
:10EAD000F0E010935700E4918E2F0F940DF20F94F5
:10EAE000DCF18AE891EE60E00F94C2F1E3E0F0E03F
:10EAF00010935700E4918E2F0F940DF20F94DCF1D8
:10EB000089E991EE60E00F94C2F1E2E0F0E0109349
:10EB10005700E4918E2F0F940DF20F94DCF188EAE8
:10EB200091EE60E00F94C2F1E1E0F0E01093570045
:10EB30001491812F0F940DF20F94DCF107CF8BE825
:10EB400092EE62E00F94F5F18BE492EE60E00F94A8
:10EB5000F5F10F94DCF100E010E019C0C8016F2D51
:10EB60000F947FFEFF2031F489E492EE60E00F9471
:10EB7000C2F10BC0F092C6008091C00086FFFCCFAE
:10EB80008091C00080648093C0000F5F1F4FC80158
:10EB900081519F41A0E0B0E0ABBFFC01F790BAE229
:10EBA000FB1621F0E2E000301E07C1F60F94DCF105
:10EBB0000F94DCF187E592EE60E00F94F5F10F948D
:10EBC000DCF1CC24DD2400E010E01EC0C8010F946D
:10EBD00077FEF82E882331F489E492EE60E00F94FA
:10EBE000C2F10BC08093C6008091C00086FFFCCFAD
:10EBF0008091C00080648093C000FE1419F00894D6
:10EC0000C11CD11C0F5F1F4FC80181519F41A0E063
:10EC1000B0E0ABBFFC01E790FAE2EF1621F022E092
:10EC20000030120799F60F94DCF10F94DCF182E6C4
:10EC300092EE60E00F94C2F1C60161E070E00F94C3
:10EC400034F20F94DCF10F94DCF110920202109276
:10EC50000302109204021092050278CE89E992EE26
:10EC600062E00F94F5F1279A2F9A16C02F9880E052
:10EC700090E0E0EDF7E03197F1F7019684369105E9
:10EC8000C1F72F9A80E090E0E0EDF7E03197F1F7DF
:10EC9000019684369105C1F78091C00087FFE6CFC9
:10ECA0008091C00087FFFCCF64C485EA92EE62E0E9
:10ECB0000F94F5F140910202509103026091040219
:10ECC0007091050281E020E10F9491F2809102029F
:10ECD00090910302A0910402B091050280509F4FD1
:10ECE000AF4FBF4F8093020290930302A0930402A0
:10ECF000B093050280509041A040B04008F426CE69
:10ED0000A4CF83EB92EE62E00F94F5F140910602FE
:10ED100050910702609108027091090280E020E1A1
:10ED20000F9491F28091060290910702A09108023F
:10ED3000B091090280509F4FAF4FBF4F80930602A2
:10ED400090930702A0930802B0930902FFCD80ECD4
:10ED500092EE62E00F94F5F183E792EE60E00F949B
:10ED6000F5F18FE792EE60E00F94F5F18BE892EE0B
:10ED700060E00F94F5F189E992EE60E00F94F5F10F
:10ED800085EA92EE60E00F94F5F183EB92EE60E09D
:10ED90000F94F5F180EC92EE60E00F94F5F187ECC2
:10EDA00092EE60E00F94F5F188ED92EE60E00F9442
:10EDB000F5F18FED92EE60E00F94F5F18AEE92EEB0
:10EDC00060E00F94F5F183E093EEBDCD87EC92EE19
:10EDD00062E00F94F5F181E40F947BF282E40F94EA
:10EDE0007BF283E40F947BF284E40F947BF285E45E
:10EDF0000F947BF286E40F947BF287E40F947BF20E
:10EE000088E40F947BF28AE40F947BF28BE40F94F6
:10EE10007BF28CE40F947BF299CD88ED92EE62E068
:10EE20000F94F5F1772473948824992409C48FED05
:10EE300092EE62E00F94F5F140910A0250910B02BC
:10EE400060910C0270910D0282E020E10F9491F22A
:10EE500080910A0290910B02A0910C02B0910D02D8
:10EE600080509F4FAF4FBF4F80930A0290930B0289
:10EE7000A0930C02B0930D0269CD8AEE92EE62E08F
:10EE80000F94F5F184EE90EE60E00F94F5F18FECC5
:10EE900091EE60E00F94F5F1662477244301CC5D98
:10EEA000DE4F19821882C452D140D401C301B695F5
:10EEB000A79597958795CA5DDE4F88839983AA8326
:10EEC000BB83C652D140CC5DDE4FA881B981C4520C
:10EED000D1401196CC5DDE4FB983A883C452D14096
:10EEE000CD0162E070E00F9434F2B0E2B093C6005E
:10EEF0008091C00086FFFCCF8091C0008064809329
:10EF0000C000EDE2E093C6008091C00086FFFCCF18
:10EF10008091C00080648093C000F0E2F093C6004E
:10EF20008091C00086FFFCCF8091C00080648093F8
:10EF3000C000CA5DDE4FE880F9800A811B81C6529D
:10EF4000D140BB27A12F902F8F2D0F940DF2CA5DBA
:10EF5000DE4F8881C652D1400F940DF2B0E2FB2EF5
:10EF6000F092C6008091C00086FFFCCF8091C00067
:10EF700080648093C0000DE30093C6008091C000C0
:10EF800086FFFCCF8091C00080648093C00010E2B7
:10EF90001093C6008091C00086FFFCCF8091C00016
:10EFA00080648093C0008BBEF3012791C65DDE4F65
:10EFB0002883CA52D140A22EBB24CC24DD2408943D
:10EFC000611C711C811C911C8BBEF3018791282E42
:10EFD0003324442455240894611C711C811C911C09
:10EFE0008BBEF3013791C55DDE4F3883CB52D140E4
:10EFF0000894611C711C811C911C8BBEF30147910C
:10F00000C45DDE4F4883CC52D140ADEFEA2EAFEF66
:10F01000FA2EAFEF0A2FAFEF1A2F6E0C7F1C801E57
:10F02000911E142D032DF22CEE24EA0CFB1C0C1D5A
:10F030001D1D0F940DF220E22093C6008091C000A8
:10F0400086FFFCCF8091C00080648093C000C65DC5
:10F05000DE4F8881CA52D1400F940DF230E23093D6
:10F06000C6008091C00086FFFCCF8091C000806404
:10F070008093C000C45DDE4F8881CC52D1400F9494
:10F080000DF240E24093C6008091C00086FFFCCFA5
:10F090008091C00080648093C000C55DDE4F888190
:10F0A000CB52D1400F940DF250E25093C6008091A4
:10F0B000C00086FFFCCF8091C00080648093C000B8
:10F0C0008FEFE8168FEFF80680E0080780E018075A
:10F0D00031F484E092EE60E00F94C2F1DFC0D80119
:10F0E000C7018070907CA070B0708050904CA040A0
:10F0F000B040D1F52FEF3FE340E050E0E222F322B1
:10F1000004231523CA5DDE4FA880B980CA80DB8046
:10F11000C652D140AE0CBF1CC01ED11EAA0CBB1CD7
:10F12000CC1CDD1C8EE092EE60E00F94C2F1BB2798
:10F13000A12F902F8F2D0F940DF28E2D0F940DF285
:10F1400030E23093C6008091C00086FFFCCF8091F2
:10F15000C00080648093C0004EE34093C60080915D
:10F16000C00086FFFCCF87C08EE09EEFA0E0B0E03D
:10F17000E822F9220A231B239CE0E91694E9F90608
:10F1800090E0090790E0190709F088C0C45DDE4FE0
:10F19000A881CC52D140EA2EFF2400E010E0102FCD
:10F1A0000F2DFE2CEE24C55DDE4FB881CB52D14031
:10F1B000EB0EF11C011D111DD601C501817090706F
:10F1C000A070B070DC0199278827E80EF91E0A1F8D
:10F1D0001B1F20EF30E040E050E0A222B322C42207
:10F1E000D52241E1AA0CBB1CCC1CDD1C4A95D1F7F1
:10F1F000EA0CFB1C0C1D1D1D81E090E0A0E0B0E0BE
:10F20000282239224A225B2235E1220C331C441C7D
:10F21000551C3A95D1F7E20CF31C041D151D57013E
:10F220006801AA0CBB1CCC1CDD1C85E192EE60E0E1
:10F230000F94C2F1C801AA27BB270F940DF2BB2778
:10F24000A12F902F8F2D0F940DF28E2D0F940DF274
:10F2500090E29093C6008091C00086FFFCCF809121
:10F26000C00080648093C000AEE3A093C60080918C
:10F27000C00086FFFCCF8091C00080648093C000F6
:10F28000C601AA27BB270F940DF2BB27AD2D9C2DDD
:10F290008B2D0F940DF28A2D0F940DF20F94DCF14B
:10F2A000CC5DDE4FE881F981C452D140F99709F471
:10F2B0004DCBF4E0EF2EF12C012D112D6E0C7F1CA7
:10F2C000801E911EF2CD83E093EE62E00F94F5F183
:10F2D0008AE192EE60E00F94C2F18091C00087FF56
:10F2E000FCCF1091C6001F751093C6008091C0001E
:10F2F00086FFFCCF8091C00080648093C0000F9493
:10F30000DCF1812F81548A3108F036C1163409F4BA
:10F3100095C0173490F4133409F44EC0143430F40B
:10F320001134F1F0123409F01DC130C0143409F465
:10F3300059C0153409F016C16BC01A3409F4C4C0A1
:10F340001B3438F4173409F48FC0183409F00AC19B
:10F35000A1C01B3409F4D2C01C3409F003C1E8C0B9
:10F360008FEF81B90DC082B1809582B980E090E0C5
:10F37000E0EDF7E03197F1F70196883C9105C1F790
:10F380008091C00087FFEFCF12B8EFC08FEF84B934
:10F390000DC085B1809585B980E090E0E0EDF7E0A3
:10F3A0003197F1F70196883C9105C1F78091C00033
:10F3B00087FFEFCF15B8D9C08FEF87B90DC088B1DF
:10F3C000809588B980E090E0E0EDF7E03197F1F7C3
:10F3D0000196883C9105C1F78091C00087FFEFCF6F
:10F3E00018B8C3C08FEF8AB90DC08BB180958BB9A7
:10F3F00080E090E0E0EDF7E03197F1F70196883C8E
:10F400009105C1F78091C00087FFEFCF1BB8ADC059
:10F410008FEF8DB90DC08EB180958EB980E090E0F0
:10F42000E0EDF7E03197F1F70196883C9105C1F7DF
:10F430008091C00087FFEFCF1EB897C08FEF80BBD1
:10F440000DC081B3809581BB80E090E0E0EDF7E0F6
:10F450003197F1F70196883C9105C1F78091C00082
:10F4600087FFEFCF11BA81C08FEF83BB0DC084B38C
:10F47000809584BB80E090E0E0EDF7E03197F1F714
:10F480000196883C9105C1F78091C00087FFEFCFBE
:10F4900014BA6BC08FEF809301010FC080910201FD
:10F4A00080958093020180E090E0E0EDF7E03197F5
:10F4B000F1F70196883C9105C1F78091C00087FF64
:10F4C000EDCF1092020151C08FEF809304010FC065
:10F4D0008091050180958093050180E090E0E0ED4A
:10F4E000F7E03197F1F70196883C9105C1F78091DB
:10F4F000C00087FFEDCF1092050137C08FEF8093DA
:10F5000007010FC08091080180958093080180E079
:10F5100090E0E0EDF7E03197F1F70196883C910536
:10F52000C1F78091C00087FFEDCF109208011DC088
:10F530008FEF80930A010FC080910B01809580931B
:10F540000B0180E090E0E0EDF7E03197F1F70196F4
:10F55000883C9105C1F78091C00087FFEDCF1092E4
:10F560000B0103C085E292EEEEC98091C00087FFD7
:10F57000FCCF8091C600EAC988E392EEE4C98CE131
:10F5800091EEE1C988249924933011F1943028F444
:10F59000913089F09230B8F408C0953061F195301F
:10F5A000F0F0963009F048C043C02B3109F042C951
:10F5B00091E06BE13FC96227C15DDE4F2883CF52E6
:10F5C000D14092E037C9B22FA0E0622793E032C960
:10F5D000822F90E0A82BB92B622794E02BC92E3004
:10F5E00009F039C3622795E0C05DDE4F19821882A9
:10F5F000C053D1401FC9E1E0F0E0EC0FFD1FC05D3A
:10F60000DE4F08811981C053D140E00FF11F2083E4
:10F610000F5F1F4FC05DDE4F19830883C053D14079
:10F6200062270A171B0709F005C9D80196E002C92D
:10F63000261709F010C303C0973009F0FBC87724E0
:10F640009981933109F412C19431C8F4963009F4C8
:10F65000D8C0973050F4923009F406C1933009F4C1
:10F660006DC0913009F059C253C0913109F477C08F
:10F67000923108F0BBC0903109F04FC2F5C098310B
:10F6800009F487C0993150F4953109F4EFC09531F0
:10F6900008F4C6C1963109F040C2C2C19A3109F4DA
:10F6A0006CC09A3108F491C09B3109F45BC09D3164
:10F6B00009F033C29D81903359F48F81882311F46E
:10F6C0009EE11CC0813011F091E018C098E916C08D
:10F6D000892F807591F0903539F4E0E0F0E089E011
:10F6E0008093570094910AC0983539F4E3E0F0E034
:10F6F00089E080935700949101C090E01A821B82A8
:10F700008D818C831D829E831F8227E030E009C299
:10F710001A8288E08B8381E48C8386E58D8382E581
:10F720008E8389E48F8383E5888780E589878FE5E9
:10F730008A8782E38B872BE030E0F3C18A818139AD
:10F7400041F0823941F0803911F48FE005C080E04A
:10F7500003C082E001C08AE01A828B8344C0772410
:10F76000739482C08D81882311F48EE12CC0813086
:10F7700011F081E028C088E926C01A82E1E0F0E0BB
:10F7800089E08093570084918B831C8224E030E0D1
:10F79000C8C18B81803589F48C81883039F4E2E0EE
:10F7A000F0E089E08093570084910DC0E0E0F0E044
:10F7B00089E080935700849106C0E3E0F0E089E09F
:10F7C0008093570084911A82DFCF8D81836C99E0FA
:10F7D000E1E0F0E0082E90935700E89507B600FCB2
:10F7E000FDCF1A821B8223E030E09BC180EC8A832C
:10F7F000CE5CDE4F188219821A821B82C253D1401E
:10F800008EC18A8190E0A0E0B0E0582F44273327D2
:10F8100022278B8190E0A0E0B0E0DC0199278827C7
:10F82000282B392B4A2B5B2B8D8190E0A0E0B0E098
:10F83000282B392B4A2B5B2B8C8190E0A0E0B0E089
:10F84000BA2FA92F982F8827282B392B4A2B5B2BCF
:10F85000220F331F441F551FC05EDE4F288339839C
:10F860004A835B83C052D1401A8259C13A81C95C34
:10F87000DE4F3883C753D140CA5CDE4F1882C6536F
:10F88000D1408B81C82EDD24CA5CDE4F488159816E
